{
  "contractName": "Contador",
  "abi": [
    {
      "inputs": [
        {
          "internalType": "int256",
          "name": "x",
          "type": "int256"
        }
      ],
      "name": "sumar",
      "outputs": [],
      "stateMutability": "nonpayable",
      "type": "function"
    },
    {
      "inputs": [
        {
          "internalType": "int256",
          "name": "x",
          "type": "int256"
        }
      ],
      "name": "restar",
      "outputs": [],
      "stateMutability": "nonpayable",
      "type": "function"
    },
    {
      "inputs": [],
      "name": "getContador",
      "outputs": [
        {
          "internalType": "int256",
          "name": "",
          "type": "int256"
        }
      ],
      "stateMutability": "view",
      "type": "function"
    }
  ],
  "bytecode": "0x60806040526000805534801561001457600080fd5b506102f2806100246000396000f3fe608060405234801561001057600080fd5b50600436106100415760003560e01c806334041193146100465780637da078e214610062578063bb8be3af1461007e575b600080fd5b610060600480360381019061005b919061010e565b61009c565b005b61007c6004803603810190610077919061010e565b6100b3565b005b6100866100ca565b604051610093919061014a565b60405180910390f35b806000546100aa9190610194565b60008190555050565b806000546100c19190610228565b60008190555050565b60008054905090565b600080fd5b6000819050919050565b6100eb816100d8565b81146100f657600080fd5b50565b600081359050610108816100e2565b92915050565b600060208284031215610124576101236100d3565b5b6000610132848285016100f9565b91505092915050565b610144816100d8565b82525050565b600060208201905061015f600083018461013b565b92915050565b7f4e487b7100000000000000000000000000000000000000000000000000000000600052601160045260246000fd5b600061019f826100d8565b91506101aa836100d8565b9250817f7fffffffffffffffffffffffffffffffffffffffffffffffffffffffffffffff038313600083121516156101e5576101e4610165565b5b817f800000000000000000000000000000000000000000000000000000000000000003831260008312161561021d5761021c610165565b5b828201905092915050565b6000610233826100d8565b915061023e836100d8565b9250827f80000000000000000000000000000000000000000000000000000000000000000182126000841215161561027957610278610165565b5b827f7fffffffffffffffffffffffffffffffffffffffffffffffffffffffffffffff0182136000841216156102b1576102b0610165565b5b82820390509291505056fea26469706673582212205ebe0304553ef14c3565136b9f1a67f6f2bd83db639f36fd6d7d4ed43fce55c864736f6c634300080b0033",
  "immutableReferences": {},
  "source": "pragma solidity ^0.8.11;\n\ncontract Contador{  \n    int contador=0;\n    function sumar(int x) public{\n        contador = contador + x;\n    }\n    function restar (int x) public{\n       contador = contador - x;\n    }\n    function getContador() public view returns (int){\n        return contador;\n    }\n}\n",
  "sourcePath": "/home/cristian/Documentos/Cursos/15_dApps/Proyecto2/Contador/contracts/Contador.sol",
  "compiler": {
    "name": "solc",
    "version": "0.8.11+commit.d7f03943.Emscripten.clang"
  },
  "schemaVersion": "3.4.4",
  "updatedAt": "2022-01-23T22:50:17.958Z",
  "devdoc": {
    "kind": "dev",
    "methods": {},
    "version": 1
  },
  "userdoc": {
    "kind": "user",
    "methods": {},
    "version": 1
  }
}